:1000000000E0002089010000F9010000FB01000070
:10001000FD010000FF0100000102000000000000DF
:1000200000000000000000000000000003020000CB
:1000300005020000000000000702000009020000A5
:100040000B0200000D0200007DB60000A1B600000A
:100050001302000015020000170200001902000040
:100060001B0200001D02000031A9000055A900007C
:100070002302000025020000E5980000019900001D
:10008000554F00002D0200002F0200003102000039
:100090003302000035020000370200003902000080
:1000A0003B0200003D0200003F0200004102000050
:1000B0004302000045020000470200004902000020
:1000C0004B0200004D0200004F02000051020000F0
:1000D00053020000550200005702000059020000C0
:1000E0005B0200005D0200005F0200006102000090
:1000F0006302000065020000670200006902000060
:100100006B0200006D0200006F020000710200002F
:1001100073020000750200007702000079020000FF
:100120007B0200007D0200007F02000021420000EF
:10013000830200008502000087020000890200009F
:100140008B0200008D0200008F020000910200006F
:10015000930200009502000097020000990200003F
:100160009B0200009D0200009F020000A10200000F
:10017000A3020000A5020000A7020000A9020000DF
:10018000AB020000AD020000494880474948002802
:100190000BD1494849494A4A884206D091421CBF7E
:1001A00050F8043B41F8043BF8D146484649474AD9
:1001B000884206D091421CBF50F8043B41F8043BF2
:1001C000F8D143484349444A914218BF41F8040BCF
:1001D000FAD1000000000000000000000000000054
:1001E000DFF8F8000FF2030E00474FF000004FF069
:1001F0000001DFF8ECF0FEE7FEE7FEE7FEE7FEE7D2
:10020000FEE7FEE7FEE7FEE7FEE7FEE7FEE7FEE7C6
:10021000FEE7FEE7FEE7FEE7FEE7FEE7FEE7FEE7B6
:10022000FEE7FEE7FEE7FEE7FEE7FEE7FEE7FEE7A6
:10023000FEE7FEE7FEE7FEE7FEE7FEE7FEE7FEE796
:10024000FEE7FEE7FEE7FEE7FEE7FEE7FEE7FEE786
:10025000FEE7FEE7FEE7FEE7FEE7FEE7FEE7FEE776
:10026000FEE7FEE7FEE7FEE7FEE7FEE7FEE7FEE766
:10027000FEE7FEE7FEE7FEE7FEE7FEE7FEE7FEE756
:10028000FEE7FEE7FEE7FEE7FEE7FEE7FEE7FEE746
:10029000FEE7FEE7FEE7FEE7FEE7FEE7FEE7FEE736
:1002A000FEE7FEE7FEE7FEE7FEE7FEE7FEE7704754
:1002B000F1C1000000000000F0020000F0020000A8
:1002C00044F8000044F800000000002080010020F5
:1002D0000000000080010020D0230020BDDE0000CF
:1002E000910300000000000000000000000000007A
:1002F00040F28013C2F200031A780AB90120187084
:10030000704700BF40F20000C2F2000008B5036869
:100310002BB140F20003C0F2000303B1984708BDBF
:1003200080B483B000AF0346FB714EF20013CEF2EF
:10033000000397F907204FEA5212F97901F01F01E3
:100340004FF0010000FA01F143F8221007F10C0709
:10035000BD4680BC704700BF80B400AF40F20003D0
:10036000C4F208234FF00102C3F88021BD4680BCCF
:10037000704700BF80B400AF40F20003C4F208230E
:100380004FF00102C3F88024BD4680BC704700BF17
:1003900080B582B000AF40F20003C6F207037B6075
:1003A0007B6803F5485303F143031A7840F6A043F2
:1003B000C2F200031A7041F61063C2F2000340F269
:1003C0000442C3F20D021A6040F6D943C2F20003A0
:1003D0004FF000021A7000F0A3F940F61533C2F294
:1003E00000034FF000021A7041F64430C2F20000E0
:1003F0004FF000010BF09CFE10E04FF0C8000AF037
:1004000013F940F61533C2F200031B7803F1010320
:10041000DAB240F61533C2F200031A700AF034FA69
:100420000346002B06D040F61533C2F200031B78BA
:10043000092BE2D90AF018FAFFF78EFFFFF79AFFAF
:1004400041F64430C2F200004FF001010BF070FEA3
:1004500040F27803C2F200031A6842F6A063C0F2C9
:100460006303136040F28003C2F200031B684FF085
:1004700000021A6040F23D43C2F200034FF0000256
:100480001A7040F27C03C2F200031B684FF00002B6
:100490001A6041F6C413C2F200034FF001021A7051
:1004A00040F61633C2F200034FF000021A7041F218
:1004B0007D43C2F200034FF000021A7040F2444341
:1004C000C2F200034FF005021A7040F23443C2F248
:1004D00000034FF00A021A7041F27C43C2F200039B
:1004E0004FF00A021A7040F63153C2F200034FF087
:1004F0000E021A7041F2A423C2F200034FF0000270
:100500001A7041F2D473C2F200034FF000021A7065
:1005100040F23053C2F200034FF000021A7040F66E
:100520006023C2F200034FF000021A7041F285030B
:10053000C2F200034FF000021A7041F28403C2F2CB
:1005400000034FF000021A7040F2AC13C2F2000335
:100550004FF002021A7041F2A823C2F200036D4A62
:100560001A6041F2A823C2F200036A4A1A6141F2FA
:10057000A823C2F20003674A1A6240F6E803C2F2F7
:1005800000034FF001021A7041F22863C2F2000327
:100590004FF000021A7040F24843C2F200035E4A74
:1005A0001A6041F27C03C2F200035B4A1A6040F613
:1005B0003053C2F200034FF000021A7041F62003DC
:1005C000C2F200034FF000021A7040F28043C2F200
:1005D00000034FF000021A7041F6F853C2F2000314
:1005E0004FF000021A6040F27443C2F200034B4A1B
:1005F0001A6041F62803C2F200034FF00A021A7093
:1006000040F23873C2F200034FF000021A7040F655
:10061000E443C2F200034FF000021A7040F250337C
:10062000C2F200034FF000021A7040F63253C2F2D9
:1006300000034FF000021A7040F66823C2F2000374
:100640004FF000021A7040F26043C2F20003324AD7
:100650001A6040F62853C2F200032F4A1A6041F68E
:100660001C03C2F200032C4A1A6040F6E063C2F297
:100670000003294A9A6240F2FC33C2F20003264A80
:100680009A6241F2A873C2F20003234A9A6241F6C9
:100690002403C2F20003204A1A6040F24C43C2F223
:1006A00000031D4A1A6041F22013C2F200031A4AE5
:1006B0001A6041F64430C2F200004FF000010BF026
:1006C00037FD06F0B5FC40F61533C2F200034FF0DB
:1006D00000021A7041F64430C2F200004FF00101EE
:1006E0000BF026FD07F07AFC00E000BF00F03CFEB6
:1006F00041F22863C2F200031B78012BF5D141F2CD
:100700002863C2F200034FF000021A7004F034FDB7
:10071000ECE700BF0000803F000000003333333FB0
:1007200080B584B002AF4FF0FF33FB7148F2000395
:10073000C4F203034FF00002DA6640F69420C2F2DE
:1007400000004FF048514FF002020BF07BFC41F6E5
:10075000C870C2F2000042F20001C3F200214FF063
:1007600002020BF06FFC41F64430C2F2000044F28A
:100770000001C3F200214FF002020BF063FC41F6CE
:100780004430C2F200004FF001010BF0D1FC4FF0F9
:100790003B00FFF7C5FD4FF009004FF062010AF082
:1007A000ADFF4FF009000BF051F842F2C020C2F249
:1007B00000000AF00BFA4FF00103009342F2C83038
:1007C000C2F2000040F62041C0F20C014FF00002DE
:1007D0004FF020030BF0DAF842F2C830C2F200000A
:1007E0004FF001010BF098F942F2C830C2F200005C
:1007F0000BF0C4F940F26C03C2F200031B784FEA1D
:1008000043334FEAC30303F107031A4641F2F4539B
:10081000C2F200035A6041F2F453C2F200034FF6F1
:10082000FF721A6041F2F453C2F200034FF6FF72F6
:100830001A8141F2F453C2F200034FF000025A81D0
:1008400042F2C830C2F2000041F2F451C2F200019B
:100850000BF0F0F90346FB7109F05EF84FF0000071
:100860004FF003010AF04AFF4FF00803009342F2F1
:10087000C020C2F200004FF000014FF040724FF470
:1008800080730AF0DDFA4FF0010009F0CDFE6FF041
:100890007E033B714FF000037B714FF00003BB718F
:1008A00007F104023B4610464FF002011A464FF092
:1008B000000300F02FFD4FF0010009F0B5FE6FF0CE
:1008C0007E033B714FF000037B714FF00003BB715F
:1008D00007F104023B4610464FF002011A464FF062
:1008E000000300F017FD6FF077033B716FF02003FA
:1008F0007B714FF02103BB7107F104023B461046A8
:100900004FF003011A464FF0000300F003FD6FF0B3
:1009100076033B714FF061037B714FF00703BB71AE
:1009200007F104023B4610464FF003011A464FF010
:10093000000300F0EFFC6FF07B033B716FF07F036F
:100940007B716FF03E03BB7107F104023B4610461A
:100950004FF003011A464FF0000300F0DBFC6FF08C
:1009600078033B714FF038037B714FF00103BB718B
:1009700007F104023B4610464FF003011A464FF0C0
:10098000000300F0C7FC6FF073033B714FF00403EA
:100990007B714FF01D03BB7107F104023B4610460B
:1009A0004FF003011A464FF0000300F0B3FC41F290
:1009B0009003C2F200034FF4FC721A606FF07103EF
:1009C0003B7141F29003C2F200031B684FEA13230C
:1009D000DBB27B7141F29003C2F200031B68DBB211
:1009E000BB7107F104023B4610464FF003011A4663
:1009F0004FF0000300F08EFC6FF046033B714FF0A8
:100A000008037B716FF07F03BB7107F104023B4663
:100A100010464FF003011A464FF0000300F07AFC35
:100A20006FF074033B714FF001037B714FF02C03A7
:100A3000BB7107F104023B4610464FF003011A4612
:100A40004FF0000300F066FC6FF075033B714FF050
:100A500002037B714FF01003BB7107F104023B46A8
:100A600010464FF003011A464FF0000300F052FC0D
:100A70006FF079033B716FF02F037B716FF073039D
:100A8000BB7107F104023B4610464FF003011A46C2
:100A90004FF0000300F03EFC4FF07F033B7107F185
:100AA00004023B4610464FF001011A464FF0020384
:100AB00000F030FC7B781A463B784FEA032313445E
:100AC0001A4640F2A013C2F200031A604FF0060368
:100AD0003B7107F104023B4610464FF001011A46F4
:100AE0004FF0020300F016FC7B781A463B784FEA81
:100AF000032313441A4640F2A013C2F200031A6003
:100B00004FF0010009F090FD40F22443C2F20003CF
:100B10004FF00F021A7041F28C03C2F200034FF043
:100B20000F021A7040F26F03C2F200034FF00F027F
:100B30001A7041F28C03C2F200031B7841F6C870B0
:100B4000C2F2000019460BF0F3FA4FF0010009F071
:100B50006BFD40F69420C2F200004FF001010BF053
:100B6000E7FA41F64430C2F200004FF000010BF00A
:100B7000DFFA07F10807BD4680BD00BF80B586B02B
:100B800002AF786039604FF00003FB8156E0FB89CB
:100B900003F10103FB81FB89B3F57A6F4ED94FF066
:100BA0000103009342F2C830C2F2000040F6204137
:100BB000C0F20C014FF000024FF020030AF0E6FEF5
:100BC00042F2C830C2F200004FF001010AF0A4FF67
:100BD00042F2C830C2F200000AF0D0FF40F26C03CB
:100BE000C2F200031B784FEA43334FEAC30303F119
:100BF00007031A4641F2F453C2F200035A6041F26D
:100C0000F453C2F200034FF6FF721A6041F2F4533C
:100C1000C2F200034FF6FF721A8141F2F453C2F29E
:100C200000034FF000025A8142F2C830C2F20000C5
:100C300041F2F451C2F200010AF0FCFF7868396811
:100C40000BF08AF90346012BA1D107F11007BD462D
:100C500080BD00BF80B582B000AF40F25133C2F218
:100C600000031B78022B04D0042B00F0A082012B80
:100C700045E340F29C13C2F200031B781A4640F28F
:100C80009E13C2F200031B781A4440F29F13C2F273
:100C900000031B781A4440F29D13C2F200031B7834
:100CA000134403F5B5731A4640F6A443C2F2000399
:100CB0001A634FF00003FB8057E040F6A443C2F2F2
:100CC00000031A6BF98840F6A443C2F2000353F8FC
:100CD00021304FEA13631A4440F6A443C2F20003E2
:100CE0001A6340F6A443C2F200031A6BF98840F677
:100CF000A443C2F2000353F8213003F47F034FEA08
:100D000013431A4440F6A443C2F200031A6340F6A8
:100D1000A443C2F200031A6BF98840F6A443C2F25E
:100D2000000353F8213003F47F434FEA13231A449E
:100D300040F6A443C2F200031A6340F6A443C2F291
:100D400000031A6BF98840F6A443C2F2000353F87B
:100D5000213003F0FF031A4440F6A443C2F200031B
:100D60001A63FB8803F10103FB80FB880B2BA4D9DA
:100D700040F6A443C2F200031B6B4FEA036240F645
:100D8000A443C2F200031A6340F26C03C2F20003F0
:100D90001B784FEA435303F5806240F6D943C2F211
:100DA00000031B78134423F0604141F60063C2F254
:100DB00000031A6861F3DF021A6040F29C13C2F26A
:100DC00000031B784FEA032240F29E13C2F2000395
:100DD0001B7813444FEA032240F29F13C2F2000330
:100DE0001B7813444FEA032240F29D13C2F2000322
:100DF0001B7813441A4641F60063C2F200039A605E
:100E000041F60063C2F2000343F2FF52C0F2360221
:100E10005A6041F60063C2F200034FF4C012DA6078
:100E200042F2C830C2F2000041F60061C2F2000195
:100E3000FFF7A4FE40F26C03C2F200031B784FEAF6
:100E4000435303F5C06240F6D943C2F200031B7856
:100E5000134423F0604141F60063C2F200031A68B4
:100E600061F3DF021A6040F6A443C2F200035A683D
:100E700041F60063C2F200039A6040F6A443C2F256
:100E800000031A6841F60063C2F200035A6041F69B
:100E90000063C2F200034FF4C012DA6042F2C830BD
:100EA000C2F2000041F60061C2F20001FFF766FEE7
:100EB00040F26C03C2F200031B784FEA435303F580
:100EC000C06240F6D943C2F200031B78134423F0FA
:100ED000604141F60063C2F200031A6861F3DF0269
:100EE0001A6040F6A443C2F20003DA6841F60063D8
:100EF000C2F200039A6040F6A443C2F200039A686B
:100F000041F60063C2F200035A6041F60063C2F288
:100F100000034FF4C012DA6042F2C830C2F200009F
:100F200041F60061C2F20001FFF728FE40F26C03B7
:100F3000C2F200031B784FEA435303F5C06240F648
:100F4000D943C2F200031B78134423F0604141F6F9
:100F50000063C2F200031A6861F3DF021A6040F610
:100F6000A443C2F200035A6941F60063C2F20003CF
:100F70009A6040F6A443C2F200031A6941F6006386
:100F8000C2F200035A6041F60063C2F200034FF45C
:100F9000C012DA6042F2C830C2F2000041F60061CD
:100FA000C2F20001FFF7EAFD40F26C03C2F2000357
:100FB0001B784FEA435303F5C06240F6D943C2F2AF
:100FC00000031B78134423F0604141F60063C2F232
:100FD00000031A6861F3DF021A6040F6A443C2F20C
:100FE0000003DA6941F60063C2F200039A6040F63A
:100FF000A443C2F200039A6941F60063C2F20003FF
:101000005A6041F60063C2F200034FF4C012DA6086
:1010100042F2C830C2F2000041F60061C2F20001A3
:10102000FFF7ACFD40F26C03C2F200031B784FEAFD
:10103000435303F5C06240F6D943C2F200031B7864
:10104000134423F0604141F60063C2F200031A68C2
:1010500061F3DF021A6040F6A443C2F200035A6A49
:1010600041F60063C2F200039A6040F6A443C2F264
:1010700000031A6A41F60063C2F200035A6041F6A7
:101080000063C2F200034FF4C012DA6042F2C830CB
:10109000C2F2000041F60061C2F20001FFF76EFDEE
:1010A00040F26C03C2F200031B784FEA435303F58E
:1010B000C06240F6D943C2F200031B78134423F008
:1010C000604141F60063C2F200031A6861F3DF0277
:1010D0001A6040F6A443C2F20003DA6A41F60063E4
:1010E000C2F200039A6040F6A443C2F200039A6A77
:1010F00041F60063C2F200035A6041F60063C2F297
:1011000000034FF4C012DA6042F2C830C2F20000AD
:1011100041F60061C2F20001FFF730FD40F26C03BE
:10112000C2F200031B784FEA435303F5C06240F656
:10113000D943C2F200031B78134423F0604141F607
:101140000063C2F200031A6861F3DF021A6041F61D
:101150000063C2F200034FF000029A6040F6A4431D
:10116000C2F200031A6B41F60063C2F200035A6038
:1011700041F60063C2F200034FF48812DA6042F2D3
:10118000C830C2F2000041F60061C2F20001FFF770
:10119000F5FC40F6D943C2F200031B7803F10103CA
:1011A000DAB240F6D943C2F200031A70A7E041F662
:1011B000F853C2F200031B6803F1010241F6F85331
:1011C000C2F200031A6040F26C03C2F200031B7803
:1011D0004FEA435303F5806323F0604141F6006317
:1011E000C2F200031A6861F3DF021A6041F6F85395
:1011F000C2F200031A6841F60063C2F200039A606B
:1012000041F60063C2F2000343F2FF52C4F200024F
:101210005A6041F60063C2F200034FF4C012DA6074
:1012200042F2C830C2F2000041F60061C2F2000191
:101230000AF092FE4FF00003FB805DE040F2840371
:10124000C2F200031A68F98840F27843C2F2000340
:101250001B784FEA83130B444FEA430303F1010366
:101260004FEA830313441A6841F60063C2F2000395
:101270009A6040F28403C2F200031A68F98840F2CF
:101280007843C2F200031B784FEA83130B444FEA02
:10129000C30313441A6841F60063C2F200035A60A4
:1012A00040F26C03C2F200031B784FEA435303F58C
:1012B000C06323F0604141F60063C2F200031A6884
:1012C00061F3DF021A6041F60063C2F200034FF4DB
:1012D000C012DA6042F2C830C2F2000041F600618A
:1012E000C2F200010AF038FE4FF47A7009F09CF95E
:1012F000FB8803F10103FB80FB883F2B9ED940F262
:10130000A413C2F200034FF000021A7007F108079D
:10131000BD4680BD80B586B002AFF8607A600A46EF
:101320007A817B8042F2C020C2F200004FF00001BF
:1013300009F006FE7B897A88009242F2C020C2F250
:101340000000F9681A467B6809F08CFE42F2C02062
:10135000C2F200004FF0000109F052FE07F1100741
:10136000BD4680BD00000000B0B586B004AF41F2BC
:101370008503C2F200031B78002B40F0A48240F2E8
:101380009413C2F200031B6803F1FF3240F298137A
:10139000C2F200031B6882EA030303F01F03002B61
:1013A00000F0918240F29413C2F200031B68012BFB
:1013B00040F2898241F28403C2F200034FF001023D
:1013C0001A7041F64430C2F200004FF000010AF0FA
:1013D000AFFE40F29413C2F200031B6803F1FF3228
:1013E00040F29813C2F200031A6040F29813C2F25E
:1013F00000031B68184641F22411C2F2000106F0F6
:10140000CBFC03461A4641F61803C2F200031A70D9
:1014100041F61803C2F200031A7840F2B013C2F288
:1014200000031A7041F20063C2F200031A6841F22D
:10143000EC73C2F200031A6040F28443C2F200036C
:101440001A6841F2A473C2F200031A6040F29813C2
:10145000C2F200031B6803F1FF33184640F618314F
:10146000C2F2000106F098FC03461A4641F29403CA
:10147000C2F200031A7041F64430C2F200004FF08D
:1014800001010AF055FE41F28503C2F200034FF05C
:1014900000021A7041F61803C2F200031B78042BF5
:1014A00014D941F29403C2F200031B78042B0DD926
:1014B00041F61803C2F200031B781C2B06D841F238
:1014C0009403C2F200031B781C2B07D941F2D4739A
:1014D000C2F200031B78032B40F0D78141F61803BA
:1014E000C2F200031B788548194607F01BF8034633
:1014F0001A4641F61803C2F200031A7041F294032F
:10150000C2F200031B787E48194607F00BF8034629
:101510001A4641F29403C2F200031A7041F2940396
:10152000C2F200031B781A4641F6F053C2F20003E0
:101530001B68734811461A4606F072FD41F2F470BA
:10154000C2F200004FF0090106F028FD41F6180331
:10155000C2F200031B781A4641F6F053C2F20003B0
:101560001B68664811461A4641F2F473C2F2000342
:1015700006F056FE41F2F470C2F2000040F6C86177
:10158000C2F2000106F024FF41F29403C2F200030C
:101590001B781A4641F61803C2F200031B789C46DA
:1015A00041F6D013C2F20003009340F26073C2F21E
:1015B0000003019340F6C863C2F20003029340F6B1
:1015C0001830C2F20000114641F22412C2F20002A9
:1015D000634607F07BFA0346DAB241F26443C2F293
:1015E00000031A7041F29403C2F200031B781A46FA
:1015F00041F6F053C2F200031B68414811461A46F7
:1016000006F08EFD41F2D473C2F200031B78032B67
:1016100006D141F26443C2F200034FF004021A7093
:1016200041F26443C2F200031A7840F61433C2F266
:1016300000031A7040F61433C2F200031B78052B26
:1016400040F223814FF000037B703BE041F6D01263
:10165000C2F2000279780B464FEA43030B444FEA8B
:10166000830302EB030041F28042C2F20002797868
:101670000B464FEA43030B444FEA830313441946D6
:1016800006F010FB40F26072C2F2000279780B465D
:101690004FEA43030B444FEA830302EB030040F697
:1016A000EC02C2F2000279780B464FEA43030B4486
:1016B0004FEA83031344194606F0F4FA7B7803F1EA
:1016C00001037B7040F61433C2F200031B787A7872
:1016D0009A42BBD340F61433C2F200031B7818467B
:1016E00041F28041C2F2000140F6EC02C2F2000277
:1016F00004F046FF4FF000037B7015E0301100202E
:10170000240B00207A78797840F23403C2F2000387
:1017100053F8211041F26843C2F2000343F822104B
:101720007B7803F101037B707B78032BEAD940F2CD
:101730003400C2F2000040F23C71C2F2000105F038
:10174000B3FA40F23C73C2F200039B6818460BF0F8
:101750000FFD02460B46104619460FF26443D3E9CB
:1017600000230BF083FE02460B46104619460CF090
:1017700035F8024641F27843C2F200031A6040F2A3
:101780003C73C2F200035B6918460BF0F1FC0246A1
:101790000B46104619460FF22843D3E900230BF0FD
:1017A00065FE02460B46104619460CF017F8024635
:1017B00040F23453C2F200031A6040F24800C2F211
:1017C000000040F23C71C2F2000140F25432C2F219
:1017D00000024FF0030303F0C7FF41F64430C2F2AA
:1017E00000004FF000010AF0A3FC07F07BFE40F27E
:1017F0008113C2F200031B78012B3FD141F21C631D
:10180000C2F200031B781A4640F24443C2F20003BE
:101810001B7803F101039A4230DD41F21C63C2F2EE
:1018200000031B78184641F22C61C2F2000140F619
:101830003452C2F2000204F0A3FE4FF00003BB706A
:1018400011E0BA78B97840F23403C2F2000353F8D9
:10185000211040F6D063C2F2000343F82210BB7897
:1018600003F10103BB70BB78032BEAD941F2850376
:10187000C2F200034FF001021A7006E040F2811339
:10188000C2F200034FF000021A7041F64430C2F277
:1018900000004FF000010AF04BFC41F21C63C2F261
:1018A00000031A7840F2AD13C2F200031A7041F23D
:1018B0008503C2F200031A7840F2AE13C2F20003AD
:1018C0001A7000F065BF41F28503C2F200031B7875
:1018D000012B40F05D8740F29413C2F200031B68B5
:1018E00003F1FF3240F29813C2F200031B6882EA50
:1018F000030303F01F03002B00F04A8741F2840327
:10190000C2F200034FF001021A7041F64430C2F2F5
:1019100000004FF001010AF00BFC41F21C63C2F21F
:1019200000034FF000021A7041F28503C2F2000377
:101930004FF000021A7040F29813C2F200031B68C5
:1019400003F1010240F29813C2F200031A6040F260
:101950009813C2F200031B68184641F22411C2F228
:10196000000106F019FA03461A4641F61803C2F2BE
:1019700000031A7041F61803C2F200031A7840F20D
:10198000B013C2F200031A7041F20063C2F2000306
:101990001A6841F2EC73C2F200031A6040F2844309
:1019A000C2F200031A6841F2A473C2F200031A6083
:1019B00041F64430C2F200004FF000010AF0B8FBDB
:1019C00041F61803C2F200031B78052B40F28D800C
:1019D00041F61803C2F200031B781F2B00F285802A
:1019E00041F61803C2F200031B787748194606F047
:1019F00099FD03461A4641F61803C2F200031A7015
:101A000041F29403C2F200031B781A4641F6F053E8
:101A1000C2F200031B686D4811461A4606F000FB2F
:101A200041F2F470C2F200004FF0090106F0B6FA7C
:101A300041F61803C2F200031B781A4641F6F05330
:101A4000C2F200031B68604811461A4641F2F47363
:101A5000C2F2000306F0E4FB41F2F470C2F20000AF
:101A600040F6C861C2F2000106F0B2FC41F29403F4
:101A7000C2F200031B781A4641F61803C2F20003B3
:101A80001B789C4641F6D013C2F20003009340F24B
:101A90006073C2F20003019340F6C863C2F2000310
:101AA000029340F61830C2F20000114641F22412AF
:101AB000C2F20002634607F009F80346DAB241F2C7
:101AC0006443C2F200031A7041F29403C2F20003AD
:101AD0001B781A4641F6F053C2F200031B683B48DC
:101AE00011461A4606F01CFB06E041F26443C2F2BE
:101AF00000034FF000021A7041F26443C2F2000387
:101B00001B78052B40F2A0814FF000037B703BE077
:101B100041F6D012C2F2000279780B464FEA430335
:101B20000B444FEA830302EB030041F28042C2F20E
:101B3000000279780B464FEA43030B444FEA8303D4
:101B40001344194606F0AEF840F26072C2F2000289
:101B500079780B464FEA43030B444FEA830302EBC9
:101B6000030040F6EC02C2F2000279780B464FEA1D
:101B700043030B444FEA83031344194606F092F8DB
:101B80007B7803F101037B7041F26443C2F20003EE
:101B90001B787A789A42BBD341F26443C2F20003C5
:101BA0001B78184641F28041C2F2000140F6EC0277
:101BB000C2F2000204F0E4FC4FF000037B7019E075
:101BC0009D7E9233FBD92B3F30110020240B002047
:101BD0007A78797840F23403C2F2000353F8211086
:101BE00041F26843C2F2000343F822107B7803F10C
:101BF00001037B707B78032BEAD940F23400C2F2F8
:101C0000000040F23C71C2F2000105F04DF841F2D3
:101C10007843C2F200031A6840F24843C2F200035C
:101C20001A6040F23453C2F200031A6841F27C0396
:101C3000C2F200031A6040F23C73C2F200039B68D8
:101C400018460BF095FA02460B46104619460FF25D
:101C50004C53D3E900230BF009FC02460B46104617
:101C600019460BF0BBFD024641F27843C2F2000375
:101C70001A6040F23C73C2F200035B6918460BF035
:101C800077FA02460B46104619460FF21053D3E975
:101C900000230BF0EBFB02460B46104619460BF0F7
:101CA0009DFD024640F23453C2F200031A6040F236
:101CB0004800C2F2000040F23C71C2F2000140F262
:101CC0005432C2F200024FF0030303F04DFD40F620
:101CD000D060C2F2000041F62C01C2F2000104F013
:101CE000E3FF40F23C70C2F2000041F62C01C2F268
:101CF000000140F66C22C2F200024FF0030303F031
:101D000017FB40F23C73C2F200039A6840F23C7346
:101D1000C2F200039B68104619460BF0BDFE034655
:101D20001C4640F23C73C2F200035A6940F23C7315
:101D3000C2F200035B69104619460BF0ADFE034684
:101D4000204619460BF0A0FD034618460BF010FA8A
:101D500002460B464FF000010C46104619460FF2A2
:101D60004443D3E900230BF0C9FC0346002B02D007
:101D70004FF001031C46E3B2002B0ED041F27C432E
:101D8000C2F200031B780A2B07D141F2A073C2F202
:101D900000034FF004021A7074E040F23C73C2F288
:101DA00000039A6840F23C73C2F200039B6810463D
:101DB00019460BF071FE03461C4640F23C73C2F21A
:101DC00000035A6940F23C73C2F200035B6910469B
:101DD00019460BF061FE0346204619460BF054FDF0
:101DE000034618460BF0C4F902460B464FF00001BB
:101DF0000C4610461946EDA3D3E900230BF07EFCF8
:101E00000346002B02D04FF001031C46E3B2002B27
:101E10000FD041F27C43C2F200031B780A2B08D199
:101E200041F2A073C2F200034FF006021A7000BF25
:101E300028E041F27C43C2F200031A7841F2A07319
:101E4000C2F200031A701DE041F27C43C2F20003AB
:101E50001A7841F2A073C2F200031A7041F278437B
:101E6000C2F200031A6840F24843C2F200031A604B
:101E700040F23453C2F200031A6841F27C03C2F20A
:101E800000031A6041F21C63C2F200034FF000022B
:101E90001A7040F28843C2F200034FF000021A7039
:101EA00041F61803C2F200031A7841F2A073C2F29D
:101EB00000031B78009340F66C20C2F2000011462C
:101EC000B54A40F6A863C2F2000307F039FD0346A5
:101ED0001A4641F21C63C2F200031A7041F21C63FD
:101EE000C2F200031B781A4640F24443C2F20003D8
:101EF0001B7803F101039A42C0F25C8140F278330F
:101F0000C2F200034FF00C021A7041F28503C2F2D4
:101F100000034FF001021A7040F28843C2F200033E
:101F20004FF001021A7041F21C63C2F200031B78E9
:101F300018460BF059FD024640F61833C2F2000372
:101F40005A6041F21C63C2F200031A7841F2940312
:101F5000C2F200031A704FF000037B7064E07A78DD
:101F600040F6A863C2F200039B5C03F10103FB701F
:101F70007B7803F10101F87841F22412C2F20002E9
:101F800003464FEA430303444FEA830313441868AC
:101F900040F61832C2F200020B464FEA43030B44EC
:101FA0004FEA8303134418607B7803F10101F8784A
:101FB00041F22412C2F2000203464FEA43030344F3
:101FC00003F1010352F8230040F61832C2F2000276
:101FD0000B464FEA43030B4403F1010342F823008D
:101FE0007B7803F10101F87841F22412C2F2000279
:101FF00003464FEA430303444FEA8303134403F1C8
:102000000803186840F61832C2F200020B464FEA85
:1020100043030B444FEA8303134403F1080318609E
:102020007B7803F101037B7041F21C63C2F2000371
:102030001B787A789A4292D34FF000037B7026E0A7
:102040007B7803F1010213464FEA430313444FEA3E
:1020500083031A4640F61833C2F2000313441846AD
:1020600040F63452C2F2000279780B464FEA43033D
:102070000B444FEA83031344194640F25432C2F230
:10208000000205F069FD7B7803F101037B7041F2EA
:102090001C63C2F200031B787A789A42D0D341F2D3
:1020A0001C63C2F200031B78184641F22C61C2F295
:1020B000000140F63452C2F2000204F061FA40F628
:1020C000D060C2F2000041F62C01C2F2000104F01F
:1020D000EBFD41F62C00C2F2000041F2CC21C2F22D
:1020E00000014FF003024FF0030303F093FC40F2B2
:1020F0003400C2F2000041F62C01C2F2000104F0EB
:10210000D3FD41F62C00C2F2000041F2CC21C2F214
:10211000000140F23C72C2F200024FF0030303F0F0
:1021200007F941F22463C2F200031B68092B18D19E
:102130004FF000037B7011E07A78797840F6D06335
:10214000C2F2000353F8211040F24033C2F2000300
:1021500043F822107B7803F101037B707B78032B1B
:10216000EAD94FF000037B7011E07A78797840F279
:102170003403C2F2000353F8211040F6D063C2F2D8
:10218000000343F822107B7803F101037B707B7816
:10219000032BEAD956E000BF301100209D7E923318
:1021A000FBD92B3F7997C47EB3B2A43E052B0729F8
:1021B000AA8DC93E41F29403C2F200034FF000021F
:1021C0001A7041F2E873C2F200031A6840F2404309
:1021D000C2F200031A6041F6D073C2F200031A681B
:1021E00041F2E873C2F200031A6040F29813C2F29F
:1021F00000031A6841F6D073C2F200031A6041F678
:10220000D073C2F200031A6841F2E873C2F200030D
:102210001B68C3EB0203012B14D141F2E873C2F235
:1022200000031A6840F24043C2F200031B68C3EB8C
:102230000203012B06D141F28503C2F200034FF0E5
:1022400000021A7041F28503C2F200031B78012BD1
:1022500014D141F21C63C2F200031A7840F2AD13AC
:10226000C2F200031A7041F28503C2F200031A7829
:1022700040F2AE13C2F200031A7006E040F2AE1351
:10228000C2F200034FF000021A7041F62003C2F2BE
:1022900000031A7840F28043C2F200031A704FF034
:1022A00000037B7055E07978787841F61462C2F2C9
:1022B000000203464FEA430303444FEA83031344F7
:1022C000186840F60872C2F200020B464FEA430358
:1022D0000B444FEA8303134418607978787841F609
:1022E0001462C2F2000203464FEA4303034403F1BF
:1022F000010352F8230040F60872C2F200020B46B6
:102300004FEA43030B4403F1010342F823007978B9
:10231000787841F61462C2F2000203464FEA4303A2
:1023200003444FEA8303134403F10803186840F69B
:102330000872C2F200020B464FEA43030B444FEA15
:102340008303134403F1080318607B7803F101034E
:102350007B7041F62003C2F200031B787A789A4220
:10236000A1D340F63053C2F200031A7841F620039D
:10237000C2F200031A704FF000037B7055E07978C9
:10238000787841F2F022C2F2000203464FEA43039A
:1023900003444FEA83031344186841F61462C2F2FF
:1023A00000020B464FEA43030B444FEA83031344F6
:1023B00018607978787841F2F022C2F20002034680
:1023C0004FEA4303034403F1010352F8230041F6AB
:1023D0001462C2F200020B464FEA43030B4403F1BE
:1023E000010342F823007978787841F2F022C2F2B2
:1023F000000203464FEA430303444FEA83031344B6
:1024000003F10803186841F61462C2F200020B4699
:102410004FEA43030B444FEA8303134403F10803D9
:1024200018607B7803F101037B7040F63053C2F2F1
:1024300000031B787A789A42A1D341F29403C2F246
:1024400000031A7840F63053C2F200031A704FF0BE
:1024500000037B705BE079787B7803F1010040F644
:102460001832C2F2000203464FEA430303444FEA24
:1024700083031344186841F2F022C2F200020B46B3
:102480004FEA43030B444FEA8303134418607978FF
:102490007B7803F1010040F61832C2F200020346D5
:1024A0004FEA4303034403F1010352F8230041F2CE
:1024B000F022C2F200020B464FEA43030B4403F141
:1024C000010342F8230079787B7803F1010040F69C
:1024D0001832C2F2000203464FEA430303444FEAB4
:1024E0008303134403F10803186841F2F022C2F297
:1024F00000020B464FEA43030B444FEA83031344A5
:1025000003F1080318607B7803F101037B7041F24B
:102510009403C2F200031B787A789A429BD34FF05F
:1025200000037B7081E07C78797840F60872C2F213
:1025300000020B464FEA43030B444FEA8303134464
:102540001A6840F24843C2F200031B68104619465D
:102550000BF09AF903461A4641F27843C2F200039F
:102560001B68104619460BF08FF90346194641F6D1
:10257000D012C2F2000223464FEA430323444FEA3B
:102580008303134419607C78797840F60872C2F2AC
:1025900000020B464FEA43030B4403F1010352F8D8
:1025A000232041F27C03C2F200031B681046194647
:1025B0000BF06AF903461A4640F23453C2F20003A4
:1025C0001B68104619460BF05FF90346194641F6A1
:1025D000D012C2F2000223464FEA4303234403F120
:1025E000010342F823107978787840F60872C2F235
:1025F000000203464FEA430303444FEA83031344B4
:1026000003F10803186841F6D012C2F200020B462B
:102610004FEA43030B444FEA8303134403F10803D7
:1026200018607B7803F101037B7040F28043C2F2B3
:1026300000031B787A789A42FFF475AF4FF00003DD
:102640007B706BE07C78797841F61462C2F200020C
:102650000B464FEA43030B444FEA830313441A68C3
:1026600041F27843C2F200031B68104619460BF092
:102670000BF90346194640F26072C2F2000223468B
:102680004FEA430323444FEA8303134419607C78E1
:10269000797841F61462C2F200020B464FEA430316
:1026A0000B4403F1010352F8232040F23453C2F2E9
:1026B00000031B68104619460BF0E6F8034619465E
:1026C00040F26072C2F2000223464FEA4303234401
:1026D00003F1010342F823107978787841F6146207
:1026E000C2F2000203464FEA430303444FEA830366
:1026F000134403F10803186840F26072C2F200024A
:102700000B464FEA43030B444FEA8303134403F1A0
:10271000080318607B7803F101037B7041F6200306
:10272000C2F200031B787A789A428BD341F2940369
:10273000C2F200031A7841F62003C2F200031B78AC
:102740007548114640F26072C2F2000206F056FB74
:1027500003461A4641F29403C2F200031A7041F292
:102760009403C2F200031A7840F28043C2F20003DD
:102770001B786948114641F6D012C2F2000206F0F9
:102780003DFB03461A4641F29403C2F200031A705D
:1027900041F28403C2F200031B78012B40F0F98759
:1027A00041F28403C2F200034FF000021A7041F2BA
:1027B0002463C2F200031B6803F1010241F22463A7
:1027C000C2F200031A6040F29813C2F200031968C3
:1027D0004CF6CD43CCF6CC43A3FB01234FEAD30206
:1027E00013464FEA830313444FEA4303C3EB01024A
:1027F00040F23C73C2F20003586840F69C21C2F2DA
:10280000000113464FEA430313444FEA83030B448A
:10281000186040F29813C2F2000319684CF6CD43D9
:10282000CCF6CC43A3FB01234FEAD30213464FEA75
:10283000830313444FEA4303C3EB010240F23C73AA
:10284000C2F20003986840F69C21C2F200011346D0
:102850004FEA4303134403F1010341F8230040F21C
:102860009813C2F2000319684CF6CD43CCF6CC4362
:10287000A3FB01234FEAD30213464FEA8303134419
:102880004FEA4303C3EB010240F23C73C2F2000380
:10289000586940F69C21C2F2000113464FEA4303F7
:1028A00013444FEA83030B4403F10803186041F219
:1028B0008503C2F200031B78002B06D141F224638A
:1028C000C2F200034FF000021A6041F2D573C2F267
:1028D00000034FF000021A7041F22463C2F20003B9
:1028E0001B68092B40F2678441F2D573C2F20003E2
:1028F0004FF001021A704FF000037B703CE07A78D1
:1029000040F22843C2F20003044943F822104FF07A
:102910000003BB7029E000BF240B00200000000072
:102920007C787A7840F22843C2F2000353F8220000
:10293000B97897F801C040F69C22C2F200020B461B
:102940004FEA43030B44634452F8233019460AF01C
:102950009BFF03461A4640F22843C2F2000343F8A5
:102960002420BB7803F10103BB70BB78092BD7D9B6
:102970007B7803F101037B707B78022BBFD940F297
:10298000AC13C2F200031B78012B00F2A98040F2C5
:102990002843C2F200035B681846DFF84C1B0BF0BB
:1029A0007BF8034618460AF0E3FB02460B46104646
:1029B00019460FF6F423D3E900230AF057FD024627
:1029C0000B46104619460FF6E823D3E900230AF018
:1029D00023FC02460B46104619460FF6DC23D3E9CA
:1029E00000230AF043FD02460B46104619460AF042
:1029F000F5FE024640F62853C2F200031A6040F288
:102A00002843C2F200039B681846DFF8DC1A0BF07B
:102A100043F8034618460AF0ABFB02460B46104645
:102A200019460FF69C23D3E900230AF01FFD024646
:102A30000B46104619460FF67823D3E900230AF017
:102A4000EBFB02460B46104619460FF66C23D3E902
:102A500000230AF00BFD02460B46104619460AF009
:102A6000BDFE024640F26043C2F200031A6040F22B
:102A70002843C2F200031B681846DFF86C1A0BF0FB
:102A80000BF8034618460AF073FB02460B46104645
:102A900019460FF62C23D3E900230AF0E7FC02467F
:102AA0000B46104619460FF60823D3E900230AF017
:102AB000B3FB02460B46104619460FF6FC13D3E94A
:102AC00000230AF0D3FC02460B46104619460AF0D2
:102AD00085FE024641F61C03C2F200031A60A7E01D
:102AE00040F22843C2F200035B681846DFF8F81989
:102AF0000AF0D2FF034618460AF03AFB02460B469C
:102B0000104619460FF6C013D3E900230AF0AEFCB5
:102B100002460B46104619460FF69413D3E90023DC
:102B20000AF07AFB02460B46104619460FF6881348
:102B3000D3E900230AF09AFC02460B4610461946D8
:102B40000AF04CFE024640F62853C2F200031A6017
:102B500040F22843C2F200039B681846DFF8881948
:102B60000AF09AFF034618460AF002FB02460B469B
:102B7000104619460FF65813D3E900230AF076FCE5
:102B800002460B46104619460FF62413D3E90023DC
:102B90000AF042FB02460B46104619460FF6181380
:102BA000D3E900230AF062FC02460B4610461946A0
:102BB0000AF014FE024640F26043C2F200031A60BB
:102BC00040F22843C2F200031B681846DFF81819C8
:102BD0000AF062FF034618460AF0CAFA02460B469C
:102BE000104619460FF6E803D3E900230AF03EFC2D
:102BF00002460B46104619460FF6B403D3E90023EC
:102C00000AF00AFB02460B46104619460FF6A803C7
:102C1000D3E900230AF02AFC02460B461046194667
:102C20000AF0DCFD024641F61C03C2F200031A6002
:102C300040F22843C2F200031A6840F23C73C2F229
:102C400000035B68104619460AF01CFE034618464E
:102C5000DFF898180AF0D4FF03461A4640F22843DA
:102C6000C2F200031A6040F22843C2F200035A681D
:102C700040F23C73C2F200039B68104619460AF00A
:102C800001FE03461846DFF864180AF0B9FF034650
:102C90001A4640F22843C2F200035A6040F2284329
:102CA000C2F200039A6840F23C73C2F200035B690F
:102CB000104619460AF0E6FD03461846DFF82C18C0
:102CC0000AF09EFF03461A4640F22843C2F2000370
:102CD0009A6040F22843C2F200031A6841F2A82326
:102CE000C2F200035A6040F22843C2F200035A685D
:102CF00041F2A823C2F200039A6040F22843C2F2D4
:102D000000031B6883F0004241F2A823C2F20003D3
:102D1000DA6040F22843C2F200039A6841F2A82325
:102D2000C2F200035A6140F22843C2F200035B681A
:102D300083F0004241F2A823C2F200039A6140F2FC
:102D40002843C2F200039B6883F0004241F2A823AB
:102D5000C2F20003DA6140F24030C2F2000041F6F4
:102D6000C851C2F2000103F09FFF41F2A820C2F255
:102D7000000041F6C851C2F2000140F28C42C2F29A
:102D800000024FF0030302F0D3FA40F28C40C2F28B
:102D9000000040F25041C2F2000106F02BF940F26F
:102DA0003C73C2F200035A6940F22843C2F20003A6
:102DB0009B68104619460AF065FD03461846DFF881
:102DC00030170AF069FE03461C4640F23C73C2F21B
:102DD00000035A6940F22843C2F200039B68104680
:102DE00019460AF04FFD0346204619460AF054FEE4
:102DF00003461C4640F23C73C2F200039A6840F25C
:102E00002843C2F200035B68104619460AF03AFDF7
:102E100003461846DFF8D8160AF03EFE03461D4664
:102E200040F23C73C2F200039A6840F22843C2F2B7
:102E300000035B68104619460AF024FD0346284645
:102E400019460AF029FE0346204619460AF01CFDE1
:102E5000034618460AF08CF902460B464FF0000173
:102E60000C46104619460FF27063D3E900230AF0AE
:102E700063FC0346002B02D04FF001031C46E3B273
:102E8000002B0DD040F27443C2F20003DFF8642639
:102E90001A6041F62803C2F200034FF000021A70D4
:102EA00041F62803C2F200031B780F2B0DD841F620
:102EB0002803C2F200031B7803F10103DAB241F6E2
:102EC0002803C2F200031A7006E040F27443C2F213
:102ED0000003DFF824261A6040F28843C2F20003A0
:102EE0001B78012B40F0B5804FF00003BB704FF012
:102EF00000037B702BE07A7840F25043C2F200036B
:102F000053F82220797840F23403C2F2000353F8D8
:102F10002130104619460AF0BFFD03464FF000026B
:102F200014461846DFF8CC150AF072FF0346002B52
:102F300002D04FF001031C46E3B2002B03D0BB7854
:102F400003F10103BB707B7803F101037B707B7895
:102F5000032BD0D94FF000037B7077E0BB78022BB6
:102F600037D97C787A7840F25043C2F2000353F8A4
:102F7000222040F27443C2F200031B681046194637
:102F80000AF08AFD03461D4640F27443C2F2000374
:102F90001B68DFF8680519460AF074FC03461A46F8
:102FA000797840F23403C2F2000353F8213010461E
:102FB00019460AF071FD0346284619460AF064FCDA
:102FC00003461A4640F25043C2F2000343F824205D
:102FD00038E07C7840F27443C2F200031B6883F04F
:102FE0000042797840F25043C2F2000353F8213096
:102FF000104619460AF050FD03461D4640F2744340
:10300000C2F200031B68DFF8F40419460AF03AFC28
:1030100003461A46797840F23403C2F2000353F8AB
:103020002130104619460AF037FD03462846194656
:103030000AF02AFC03461A4640F25043C2F200034B
:1030400043F824207B7803F101037B707B78032B0A
:1030500084D940F25043C2F200031A6840F2504350
:10306000C2F200031B68104619460AF015FD03461C
:103070001C4640F25043C2F200035A6840F25043EB
:10308000C2F200035B68104619460AF005FD0346CC
:10309000204619460AF0F8FB03461C4640F250430E
:1030A000C2F200039A6840F25043C2F200039B68E8
:1030B000104619460AF0F0FC0346204619460AF06D
:1030C000E3FB03461C4640F25043C2F20003DA68B9
:1030D00040F25043C2F20003DB68104619460AF082
:1030E000DBFC0346204619460AF0CEFB0346184691
:1030F0000BF004F803467B604FF000037B7025E083
:103100007C787A7840F25043C2F2000353F82230C0
:10311000184679680AF074FD03461A4640F2504397
:10312000C2F2000343F824207A78797840F25043C1
:10313000C2F2000353F8211040F24033C2F2000300
:1031400043F822107B7803F101037B707B78032B1B
:10315000D6D9EA4879680AF095FB034618460AF082
:1031600061FE0346002BB8BF5B42184609F0EEFF34
:1031700002460B464FF000010C4610461946D8A3F4
:10318000D3E900230AF0D8FA0346002B02D04FF00F
:1031900001031C46E3B2002B0DD041F22463C2F2BE
:1031A00000034FF000021A6041F2D573C2F200032F
:1031B0004FF000021A7041F2D573C2F200031B787F
:1031C000002B06D040F6E803C2F200031B78002B68
:1031D00020D14FF000037B7011E07A78797840F2CB
:1031E0003403C2F2000353F8211041F2D873C2F243
:1031F000000343F822107B7803F101037B707B7896
:10320000032BEAD940F27833C2F200034FF00002F8
:103210001A7026E041F2D573C2F200031B78012B2D
:103220001FD14FF000037B7011E07A78797840F27B
:103230005043C2F2000353F8211041F2D873C2F296
:10324000000343F822107B7803F101037B707B7845
:10325000032BEAD940F27833C2F200034FF00102A7
:103260001A7040F23873C2F200031B78092B06D99A
:1032700040F23873C2F200034FF000021A7040F2BD
:103280003873C2F200031B781C4640F26043C2F25E
:1032900000031B6818469A490AF0FEFB03461A46CB
:1032A00040F6E063C2F2000343F8242040F2387392
:1032B000C2F200031B781C4640F62853C2F20003FA
:1032C0001B6818468E490AF0E7FB03461A4640F28F
:1032D000FC33C2F2000343F8242040F23873C2F2F8
:1032E00000031B781C4641F61C03C2F200031B6856
:1032F000184683490AF0D0FB03461A4641F2A873E8
:10330000C2F2000343F8242040F6E060C2F200005D
:103310004FF00A0101F09AFF024641F62403C2F27F
:1033200000031A6040F2FC30C2F200004FF00A01C4
:1033300001F08CFF024640F24C43C2F200031A60D7
:1033400041F2A870C2F200004FF00A0101F07EFFC6
:10335000024641F22013C2F200031A6040F23873B1
:10336000C2F200031B7803F10103DAB240F23873B2
:10337000C2F200031A7041F62403C2F200031B6874
:103380004FF00002144618465A490AF037FD03462A
:10339000002B02D04FF001031C46E3B2002B1CD0DF
:1033A00041F62403C2F200031B684FF000021446EA
:1033B000184654490AF00EFD0346002B02D04FF088
:1033C00001031C46E3B2002B07D040F25033C2F297
:1033D00000034FF000021A709FE041F62403C2F28E
:1033E00000031B684FF000021446184645490AF0D6
:1033F00005FD0346002B02D04FF001031C46E3B24B
:10340000002B1CD041F62403C2F200031B684FF0CE
:1034100000021446184634490AF0DCFC0346002B2F
:1034200002D04FF001031C46E3B2002B07D040F25C
:103430005033C2F200034FF001021A706DE041F602
:103440002403C2F200031B684FF000021446184622
:1034500025490AF0D3FC0346002B02D04FF00103AC
:103460001C46E3B2002B51D041F62403C2F2000304
:103470001B684FF000021446184623490AF0B4FCBA
:103480000346002B02D04FF001031C46E3B2002B91
:103490003CD040F25033C2F200034FF002021A70E7
:1034A0003BE000BFAFF30080A4703D0AD77359C062
:1034B0000000000000806640282D4454FB21094094
:1034C000A4703D0AD773594000000000001060C08E
:1034D0000000000000106040E71DA7E8482EBF3F35
:1034E000F168E388B5F8043F0000C84200001041CD
:1034F00000247449000000003333333F0000803F54
:10350000000061450000204100007A4440F2503341
:10351000C2F200034FF003021A7040F24C43C2F2B1
:1035200000031B684FF00002144618469B490AF03E
:1035300065FC0346002B02D04FF001031C46E3B2AA
:10354000002B1CD040F24C43C2F200031B684FF02A
:1035500000021446184692490AF03CFC0346002B30
:1035600002D04FF001031C46E3B2002B07D040F617
:103570003253C2F200034FF000021A706AE040F2C8
:103580004C43C2F200031B684FF000021446184679
:1035900083490AF033FC0346002B02D04FF00103AD
:1035A0001C46E3B2002B1CD040F24C43C2F2000395
:1035B0001B684FF00002144618467A490AF00AFCCC
:1035C0000346002B02D04FF001031C46E3B2002B50
:1035D00007D040F63253C2F200034FF001021A70D6
:1035E00038E040F24C43C2F200031B684FF0000287
:1035F000144618466B490AF001FC0346002B02D022
:103600004FF001031C46E3B2002B1CD040F24C43A8
:10361000C2F200031B684FF00002144618466249CC
:103620000AF0E2FB0346002B02D04FF001031C46D8
:10363000E3B2002B07D040F63253C2F200034FF042
:1036400002021A7006E040F63253C2F200034FF055
:1036500003021A7041F22013C2F200031B684FF0FC
:103660000002144618464D490AF0C8FB0346002BD9
:1036700002D04FF001031C46E3B2002B1CD041F2F4
:103680002013C2F200031B684FF0000214461846D4
:1036900043490AF09FFB0346002B02D04FF0010381
:1036A0001C46E3B2002B07D040F66823C2F20003A9
:1036B0004FF000021A706AE041F22013C2F20003D8
:1036C0001B684FF000021446184635490AF096FB75
:1036D0000346002B02D04FF001031C46E3B2002B3F
:1036E0001CD041F22013C2F200031B684FF000020D
:1036F000144618462B490AF06DFB0346002B02D0F6
:103700004FF001031C46E3B2002B07D040F66823BC
:10371000C2F200034FF001021A7038E041F22013A8
:10372000C2F200031B684FF00002144618461D4900
:103730000AF064FB0346002B02D04FF001031C4645
:10374000E3B2002B1CD041F22013C2F200031B682D
:103750004FF000021446184613490AF045FB034691
:10376000002B02D04FF001031C46E3B2002B07D020
:1037700040F66823C2F200034FF002021A7006E01E
:1037800040F66823C2F200034FF003021A7000F003
:1037900077F807F10807BD46B0BD00BF0000000084
:1037A000000020410000C84200007A44AFF30080CE
:1037B00080B487B000AF43F20003C3F20023BB60C4
:1037C0004FF00103FB71BB681A6841F2A003C2F21B
:1037D00000031A6040F23843C2F200034FF00002C7
:1037E0001A6043E0FB794FEA8302BB6813441B680D
:1037F000FB60FB7903F140034FEA8302BB6813448B
:103800001B683B61FB7903F180034FEA8302BB68CD
:1038100013441B687B61FB68002B23D0FA7941F2CB
:10382000A003C2F20003F96843F82210FA7940F2CB
:103830007C33C2F20003396943F82210FA7940F26E
:10384000B043C2F20003796943F8221040F23843D2
:10385000C2F200031B6803F1010240F23843C2F2D6
:1038600000031A60FB7903F10103FB71FB791F2B45
:10387000B8D907F11C07BD4680BC704700000000A6
:10388000B0B582B000AF42F2C830C2F200004FF4CF
:10389000805108F0ABF940F27403C2F200031B68D8
:1038A00003F10C031A684CF6CD43CCF6CC43A3FBD2
:1038B00002134FEA1353DAB240F2AF13C2F200031D
:1038C0001A7041F2A003C2F200031A6840F2981382
:1038D000C2F20003196840F29413C2F200031B689D
:1038E000C3EB01031A4440F2A813C2F200031A60AA
:1038F00040F26043C2F200031B684FF0000214461E
:103900001846DFF804190AF079FA0346002B02D0B2
:103910004FF001031C46E3B2002B14D040F2604389
:10392000C2F200031B681846DFF8E0180AF0B4F88A
:10393000034618460AF076FA024640F66423C2F2BD
:1039400000031A601DE040F26043C2F200031B68EE
:103950001846DFF8B8180AF09FF8034618460AF030
:1039600061FA024640F66423C2F200031A6040F690
:103970006423C2F200031A6840F66423C2F2000313
:103980001A6040F62853C2F200031B684FF0000291
:1039900014461846DFF870180AF030FA0346002B78
:1039A00002D04FF001031C46E3B2002B14D040F6C6
:1039B0002853C2F200031B681846DFF850180AF0BB
:1039C0006BF8034618460AF02DFA024640F69C436F
:1039D000C2F200031A601DE040F62853C2F2000351
:1039E0001B681846DFF824180AF056F803461846F4
:1039F0000AF018FA024640F69C43C2F200031A602D
:103A000040F69C43C2F200031A6840F69C43C2F29F
:103A100000031A6041F61C03C2F200031B684FF05A
:103A2000000214461846DFF8E0170AF0E7F90346EB
:103A3000002B02D04FF001031C46E3B2002B14D040
:103A400041F61C03C2F200031B681846DFF8BC17DE
:103A50000AF022F8034618460AF0E4F9024640F25A
:103A60007C43C2F200031A601DE041F61C03C2F25F
:103A700000031B681846DFF894170AF00DF8034698
:103A800018460AF0CFF9024640F27C43C2F2000326
:103A90001A6040F27C43C2F200031A6840F27C4391
:103AA000C2F200031A6041F22463C2F200031B68F1
:103AB000092B07D940F6E443C2F200034FF001029C
:103AC0001A7006E040F6E443C2F200034FF0000231
:103AD0001A7041F2A473C2F200031B68184609F081
:103AE00083FF0346184609F043FB02460B46104687
:103AF00019460FF2E463D3E9002309F0B7FC02464C
:103B00000B461046194609F049FE024641F2A473DD
:103B1000C2F200031A6041F2EC73C2F200031B68A8
:103B2000022B40F2D28040F2AC13C2F200031B78A9
:103B3000012B5FD841F2A473C2F200031B68184640
:103B400009F0F4FA04460D4640F2AC13C2F2000349
:103B50001B781A4613464FEA830313444FEA430384
:103B6000184609F0F3FA02460B46104619460FF2C2
:103B70007063D3E9002309F09DF902460B46104615
:103B800019464FF000024FF07E5303F5C00309F0D1
:103B900043FB02460B46104619460FF24C63D3E92D
:103BA000002309F039FB02460B46104619460FF276
:103BB0004063D3E9002309F07DF902460B46104625
:103BC00019460FF23463D3E9002309F04FFC024693
:103BD0000B462046294609F06DF902460B46104671
:103BE000194609F0DBFD024641F2A473C2F200035C
:103BF0001A605EE041F2A473C2F200031B6818462B
:103C000009F094FA04460D4640F2AC13C2F20003E8
:103C10001B781A4613464FEA830313444FEA4303C3
:103C2000184609F093FA02460B46104619460FF261
:103C3000D053D3E9002309F03DF902460B46104664
:103C400019464FF000024FF07E5303F5C00309F010
:103C5000E3FA02460B46104619460FF28C53D3E99D
:103C6000002309F0D9FA02460B46104619460FF216
:103C70008053D3E9002309F01DF902460B46104694
:103C800019460FF27453D3E9002309F0EFFB024603
:103C90000B462046294609F00DF902460B46104610
:103CA000194609F07BFD024641F2A473C2F20003FB
:103CB0001A6041F2EC73C2F200031B6803F1FF3299
:103CC00041F2EC73C2F200031A6041F2A473C2F233
:103CD00000031A6845F65D739A4223D941F2A47332
:103CE000C2F200031A684BF6BB639A421AD841F23B
:103CF000EC73C2F200031B6803F1010241F2EC73A2
:103D0000C2F200031A6041F2A473C2F200031B68FE
:103D1000A3F5BE42A2F15E0241F2A473C2F2000317
:103D20001A6022E041F2A473C2F200031A684BF653
:103D3000BB639A4219D941F2EC73C2F200031B68CB
:103D400003F1020241F2EC73C2F200031A6041F285
:103D5000A473C2F200031B68A3F53E42A2F1BC02A9
:103D600041F2A473C2F200031A6041F2D473C2F2AA
:103D700000031B78022B56D84FF00003FB714EE076
:103D8000FA7941F2D873C2F2000353F822304FF0AF
:103D9000000214461846DFF870140AF01BF80346B8
:103DA000002B02D04FF001031C46E3B2002B1AD0C7
:103DB000FC79FA7941F2D873C2F2000353F8223049
:103DC0001846DFF84C1409F067FE034618460AF05F
:103DD0004FF80346C3F1000240F6A443C2F20003C9
:103DE00043F8242017E0FC79FA7941F2D873C2F243
:103DF000000353F822301846DFF8181409F04CFE7F
:103E0000034618460AF034F8024640F6A443C2F2CC
:103E1000000343F82420FB7903F10103FB71FB79D4
:103E2000032BADD96AE041F61803C2F200031B78F8
:103E30004FEA03631C4640F61833C2F20003DB6806
:103E40001846F54909F028FE034618460AF010F80E
:103E5000034604EB030240F6A443C2F200031A60D7
:103E600040F61833C2F200031B691846EA4909F00C
:103E700013FE0346184609F0FBFF024640F6A44332
:103E8000C2F200035A6040F61833C2F200035B69C5
:103E90001846E14909F000FE0346184609F0E8FF1C
:103EA000024640F6A443C2F200039A6040F618337B
:103EB000C2F20003DA6840F61833C2F200031B694D
:103EC0001046194603F0E2FD03461846D34909F0AF
:103ED000E3FD03461A4641F6CC43C2F200031A60E2
:103EE00041F6CC43C2F200031B68184609F0C0FF3C
:103EF000024640F6A443C2F20003DA6041F2EC73DA
:103F0000C2F200031A6840F6A443C2F200031A6129
:103F100041F2A473C2F200031B6823F07F434FEA0F
:103F2000032240F61633C2F200031B78DBB21A44B8
:103F300040F6A443C2F200035A6140F27833C2F261
:103F400000031B7803F00F0240F23053C2F200036B
:103F50001B78194640F2AC13C2F200031B784FEAFB
:103F6000032040F26F03C2F200031B7803444FEAC0
:103F7000032040F2AF13C2F200031B7803444FEA60
:103F8000C30040F66023C2F200031B7803444FEAEB
:103F900043030B444FEA031313441A4640F6A44369
:103FA000C2F200039A6140F2AE13C2F200031B7822
:103FB0001A4640F63153C2F200031B78194640F20C
:103FC000B013C2F200031B78184641F2D473C2F258
:103FD00000031B784FEA831303444FEAC30040F207
:103FE0004443C2F200031B78A3F1040303444FEAE5
:103FF00003130B444FEA430140F23D43C2F2000376
:104000001B780B444FEAC31140F2AD13C2F2000318
:104010001B780B444FEA430313444FEA032140F655
:10402000A043C2F200031B781A4640F26D03C2F2AD
:1040300000031B784FEA43131A444FEAE2734FEA36
:1040400013631A4402F0FF02C3EB02030B441A4647
:1040500040F6A443C2F20003DA6140F2A813C2F2B0
:1040600000031A6840F6A443C2F200031A6240F645
:10407000E803C2F200031B781A4640F63253C2F23C
:1040800000031B78194640F6E443C2F200031B7894
:104090004FEA830040F66823C2F200031B78034412
:1040A0004FEA83030B444FEA830140F25033C2F2DC
:1040B00000031B780B444FEA430313444FEA0322E7
:1040C00040F23443C2F200031B7813444FEA032248
:1040D00041F27C43C2F200031B7813444FEA0322EF
:1040E00040F66423C2F200031B684FEA2363DBB28D
:1040F00013441A4640F6A443C2F200035A6240F643
:104100006423C2F200031B684FEA2343DBB24FEA89
:10411000032240F66423C2F200031B684FEA232304
:10412000DBB213444FEA032240F69C43C2F2000381
:104130001B684FEA2363DBB213444FEA032240F6C5
:104140009C43C2F200031B684FEA2343DBB21344D3
:104150001A4640F6A443C2F200039A6240F69C431A
:10416000C2F200031B684FEA2323DBB24FEA0322AB
:1041700040F27C43C2F200031B684FEA2363DBB2C8
:1041800013444FEA032240F27C43C2F200031B684F
:104190004FEA2343DBB213444FEA032240F27C434D
:1041A000C2F200031B684FEA2323DBB213441A4612
:1041B00040F6A443C2F20003DA6242F2C830C2F20F
:1041C00000004FF4805107F0FDFC07F10807BD46E1
:1041D000B0BD00BFAFF30080A4703D0AD7A370400C
:1041E00052B81E85EB7960400000000000408FC08F
:1041F0000000000080842E417B14AE47E17A4440E9
:104200000000000000D0634000000000002474495A
:10421000000000CF0000004F0000C84200401C46D4
:1042200080B582B000AF4FF0090007F03BFB40F2D1
:104230004403C2F20003196840F29413C2F200036F
:104240001B6803F01F0213464FEA430313444FEA6F
:10425000C31301EB030240F27403C2F200031B68B4
:104260001B68136040F24403C2F20003196840F275
:104270009413C2F200031B6803F01F0213464FEAB7
:10428000430313444FEA031303F101034FEAC3034B
:1042900001EB030240F27403C2F200031B6803F156
:1042A00004031B681360FFF783FA40F24403C2F271
:1042B0000003196840F29413C2F200031B6803F074
:1042C0001F0213464FEA430313444FEA431303F11B
:1042D00001034FEA830301EB030240F23843C2F2C9
:1042E00000031B6813604FF001037B6076E040F22F
:1042F0004403C2F2000319687A6813464FEA430385
:1043000013444FEA8303184640F29413C2F20003A9
:104310001B6803F01F0213464FEA430313444FEA9E
:10432000C313034401EB0302796840F27C33C2F209
:10433000000353F82130136040F24403C2F200033B
:1043400019687A6813464FEA430313444FEA83031C
:10435000184640F29413C2F200031B6803F01F02D8
:1043600013464FEA430313444FEAC313034403F1D4
:10437000040301EB0302796841F2A003C2F20003D7
:1043800053F82130136040F24403C2F2000319686D
:104390007A6813464FEA430313444FEA83031846EF
:1043A00040F29413C2F200031B6803F01F0213468D
:1043B0004FEA430313444FEAC313034403F10803D2
:1043C00001EB0302796840F2B043C2F2000353F8F4
:1043D000213013607B6803F101037B6040F23843B6
:1043E000C2F200031B6803F101027B689A423FF6A8
:1043F0007EAF40F29413C2F200031B6803F1010286
:1044000040F29413C2F200031A6000F0BDFC07F101
:104410000807BD4680BD00BF80B400AF40F26E0308
:10442000C2F200034FF001021A7041F2A423C2F25B
:1044300000031B78012B40F0B78141F2A423C2F2A4
:1044400000034FF000021A7040F2B113C2F20003F1
:104450001B78022B49D141F6C813C2F200031B7826
:10446000052B15D141F6C813C2F200035B78102B5F
:104470000ED140F26E03C2F200034FF000021A7038
:1044800040F25133C2F200034FF001021A708BE187
:1044900041F6C813C2F200031B78002B16D141F677
:1044A000C813C2F200035B78FF2B0FD140F26E03FA
:1044B000C2F200034FF000021A7040F25133C2F210
:1044C00000034FF002021A7000BF6DE140F26E036C
:1044D000C2F200034FF000021A7040F25133C2F2F0
:1044E00000034FF003021A705EE140F2B113C2F212
:1044F00000031B78032B7DD141F6C813C2F20003E1
:104500001B78052B76D140F26E03C2F200034FF008
:1045100000021A7040F25133C2F200034FF0010260
:104520001A7041F6C813C2F200035B78002B0ED15B
:1045300041F6C813C2F200039B78032B07D940F25F
:104540005133C2F200034FF003021A7051E041F6FA
:10455000C813C2F200035B78012B0ED141F6C813D9
:10456000C2F200039B78142B07D940F25133C2F2F8
:1045700000034FF003021A703BE041F6C813C2F289
:1045800000035B78042B0ED141F6C813C2F200037E
:104590009B78012B07D940F25133C2F200034FF050
:1045A00003021A7025E041F6C813C2F200035B78DB
:1045B000052B0ED141F6C813C2F200039B780E2BD7
:1045C00007D940F25133C2F200034FF003021A70D0
:1045D0000FE041F6C813C2F200035B78102B40F2E3
:1045E000E08040F25133C2F200034FF003021A7030
:1045F000DAE0D9E040F2B113C2F200031B78042BD9
:1046000059D141F6C813C2F200031B78702B43D175
:1046100041F6C813C2F200035B78222B3CD141F66D
:10462000C813C2F20003DB78194641F6C813C2F280
:1046300000031B781A4641F6C813C2F200035B78E8
:104640001A4441F6C813C2F200039B781A444FEA99
:10465000E2734FEA13631A4402F0FF02C3EB020352
:10466000994219D140F26E03C2F200034FF00002EA
:104670001A7040F25133C2F200034FF004021A7074
:1046800041F6C813C2F200039A7840F27843C2F2AE
:1046900000031A7000BF87E040F26E03C2F200030D
:1046A0004FF000021A7040F25133C2F200034FF093
:1046B00003021A7078E040F2B113C2F200031B78D3
:1046C000062B5FD141F6C813C2F200031B78502BB2
:1046D00016D141F6C813C2F200035B78052B0FD147
:1046E00040F26E03C2F200034FF000021A7040F273
:1046F0005133C2F200034FF001021A7000BF53E0C1
:1047000041F6C813C2F200031B78052B4BD141F6CA
:10471000C813C2F200035B78092B0ED140F26E037E
:10472000C2F200034FF000021A7040F25133C2F29D
:1047300000034FF001021A7036E041F6C813C2F2CE
:1047400000035B780A2B0ED140F26E03C2F2000325
:104750004FF000021A7040F25133C2F200034FF0E2
:1047600001021A7020E040F26E03C2F200034FF023
:1047700000021A7040F25133C2F200034FF00302FC
:104780001A7011E040F26E03C2F200034FF0000213
:104790001A7040F25133C2F200034FF003021A7054
:1047A00002E000BF00E000BFBD4680BC704700BF14
:1047B00080B584B000AF41F6C813C2F200035B7845
:1047C0007B7341F6C813C2F200031B78FB737B7B3B
:1047D000002B79D1FB7B052B76D141F6C813C2F2B1
:1047E00000039B78002B07D141F22863C2F200033B
:1047F0004FF001021A70BDE241F6C813C2F2000385
:104800009B78012B0ED141F6C413C2F200034FF086
:1048100001021A7041F2D473C2F200034FF0000299
:104820001A70A7E241F6C813C2F200039B78022B6C
:104830000ED141F6C413C2F200034FF001021A7008
:1048400041F2D473C2F200034FF001021A7091E2F8
:1048500041F6C813C2F200039B78032B40F0898213
:1048600041F2D473C2F200034FF003021A7041F612
:10487000C413C2F200034FF000021A7040F27C032E
:10488000C2F200031B684FF001021A6040F26F038E
:10489000C2F200034FF020021A7040F26F03C2F21E
:1048A00000031A7841F28C03C2F200031A7041F23D
:1048B0008C03C2F200031B7841F6C870C2F20000FC
:1048C000194607F035FC55E27B7B012B10D1FB7BB1
:1048D000052B0DD141F6C813C2F200039B7803F1FA
:1048E0000403DAB240F24443C2F200031A7041E218
:1048F0007B7B022B40F0C080FB7B052B40F0BC8013
:1049000041F6C813C2F200039B7842F2107202FB18
:1049100003F303F5EA4303F13003184608F016FCED
:1049200002460B46104619460FF25443D3E90023C2
:1049300008F09CFD02460B461046194608F02EFF73
:10494000024641F29003C2F200031A6041F6C81316
:10495000C2F200039A7840F2AC13C2F200031A705C
:104960006FF071033B7241F29003C2F200031B68C7
:104970004FEA1323DBB27B7241F29003C2F20003D1
:104980001B68DBB2BB7207F1080207F10403104693
:104990004FF003011A464FF00003FCF7BBFC40F256
:1049A000AC13C2F200031B78012B15D96FF07B0307
:1049B0003B726FF07F037B726FF03E03BB7207F1B7
:1049C000080207F1040310464FF003011A464FF0A6
:1049D0000003FCF79FFC14E06FF07B033B726FF069
:1049E0007F037B726FF06603BB7207F1080207F169
:1049F000040310464FF003011A464FF00003FCF782
:104A000089FC41F29003C2F200031A6840F21D4390
:104A10009A420AD941F29003C2F200031A6840F2A6
:104A20007003C2F200031A6006E040F27003C2F2A3
:104A3000000340F21D421A606FF073033B7240F2B4
:104A40007003C2F200031B684FEA1323DBB27B72D0
:104A500040F27003C2F200031B68DBB2BB7207F1C5
:104A6000080207F1040310464FF003011A464FF005
:104A70000003FCF74FFC7DE17B7B032B31D1FB7BFB
:104A8000052B2ED141F6C413C2F200034FF00002F1
:104A90001A7041F2D473C2F200034FF002021A708E
:104AA00041F6C813C2F200039A7840F26F03C2F2D3
:104AB00000031A7040F26F03C2F200031A7841F249
:104AC0008C03C2F200031A7041F28C03C2F200039D
:104AD0001B7841F6C870C2F20000194607F028FBA7
:104AE00048E17B7B042B1BD1FB7B052B18D141F6C6
:104AF000C813C2F200039B781A4602F0010240F28A
:104B00003D43C2F200031A7040F27C03C2F200037C
:104B10001A6840F23D43C2F200031B78136029E19A
:104B20007B7B052B59D1FB7B052B56D141F6C81356
:104B3000C2F200039B78BB7340F63153C2F200030C
:104B4000BA7B1A70BB7B002B15D16FF075033B72DB
:104B50004FF002037B724FF00003BB7207F10802B3
:104B600007F1040310464FF003011A464FF000030B
:104B7000FCF7D0FBFEE0BB7B1A464FEA82021344EF
:104B80004FEA4303BB736FF075033B724FF00203B0
:104B90007B724FF01003BB7207F1080207F10403A8
:104BA00010464FF003011A464FF00003FCF7B2FB2A
:104BB0006FF079033B726FF02F037B72BB7BBB728C
:104BC00007F1080207F1040310464FF003011A46EB
:104BD0004FF00003FCF79EFBCCE07B7B082B0DD154
:104BE000FB7B052B0AD141F6C813C2F200039A7869
:104BF00040F23443C2F200031A70BBE07B7B092B06
:104C000061D1FB7B052B5ED141F21463C2F200033C
:104C10004FF001021A7041F6C813C2F200039B78EC
:104C20004FEA03239AB241F6C813C2F20003DB78BD
:104C300013449AB241F62203C2F200031A8041F6ED
:104C4000C813C2F200031B794FEA03239AB241F65C
:104C5000C813C2F200035B7913449AB241F6FC53C5
:104C6000C2F200031A8040F27C03C2F200031A6809
:104C700040F23D43C2F200031B78194641F622037D
:104C8000C2F200031B8803F1010041F6FC53C2F29B
:104C900000031B8803F101034FEAC32303444FEAD7
:104CA000430041F21463C2F200031B7803444FEA4D
:104CB00043030B44136041F21463C2F200034FF04C
:104CC00000021A7056E07B7B0A2B05D07B7B052BFC
:104CD00026D1FB7B502B23D140F28003C2F200038C
:104CE0001A6841F6C813C2F200039B784FEA032109
:104CF00041F6C813C2F20003DB780B444FEA0321EC
:104D000041F6C813C2F200031B790B444FEA03219A
:104D100041F6C813C2F200035B790B44136029E02B
:104D20007B7B0B2B0DD1FB7B052B0AD141F6C813E6
:104D3000C2F200039A7841F27C43C2F200031A7077
:104D400018E07B7B0C2B0DD1FB7B052B0AD141F6A8
:104D5000C813C2F200039A7840F6E803C2F20003D7
:104D60001A7007E07B7B102B04D1FB7B052B01D154
:104D7000FEE700BF07F11007BD4680BDAFF300801E
:104D8000F0A7C64B37C9584080B582B000AF4FF08E
:104D900000037B6041F6C413C2F200031B78012BB1
:104DA00040F0D48040F2B013C2F200031B781A46E0
:104DB00040F2B413C2F200031B681A4440F2B41369
:104DC000C2F200031A6040F2B813C2F200031B786B
:104DD00003F10103DAB240F2B813C2F200031A7011
:104DE00040F2B813C2F200031B78032B40F2A480F8
:104DF00040F2B413C2F200031A6840F2B813C2F2D0
:104E000000031B78B2FBF3F37B6040F63153C2F230
:104E100000031B78002B06D040F2AF13C2F2000350
:104E20001B78C82B0DD940F63153C2F200031B7812
:104E3000002B37D140F2AF13C2F200031B78642B72
:104E400030D87B68192B15D940F22443C2F20003F5
:104E50001B78632B0ED840F22443C2F200031B7868
:104E600003F10103DAB240F22443C2F200031A70E4
:104E700000BF2CE07B680E2B26D840F22443C2F200
:104E800000031B78072B21D940F22443C2F2000310
:104E90001B7803F1FF33DAB240F22443C2F200037D
:104EA0001A7014E04FF000037B6040F2B413C2F2BA
:104EB00000034FF000021A6040F2B813C2F2000380
:104EC0004FF000021A7002E000BF00E000BF40F2A5
:104ED0002443C2F200031A7841F28C03C2F20003A9
:104EE0001A7041F28C03C2F200031B78072B06D81C
:104EF00041F28C03C2F200034FF007021A7041F234
:104F00008C03C2F200031B7841F6C870C2F20000A5
:104F1000194607F00DF94FF000037B6040F2B4131F
:104F2000C2F200034FF000021A6040F2B813C2F25E
:104F300000034FF000021A7041F28C03C2F200032A
:104F40001A7840F26F03C2F200031A7007F10807E3
:104F5000BD4680BD80B584B000AF40F28943C2F247
:104F600000034FF000021A7042F2C830C2F2000093
:104F70004FF4805106F050FEEFE042F2C830C2F22A
:104F8000000041F20461C2F2000106F03FFF41F26D
:104F90000463C2F200031B68C3F3DC03FB6041F24D
:104FA0000463C2F200031B68C3F3DC031A464FEA32
:104FB000E2734FEA13631A4402F0FF02C3EB0203E9
:104FC000DAB241F21D63C2F200031A7041F20463C7
:104FD000C2F20003DB68C3F30343DBB21A4640F2BC
:104FE000B113C2F200031A704FF00003BB604FF020
:104FF0000003FB7132E0FB79032B11D8FA79FB79BE
:10500000C3F1030141F20463C2F200030B441B79B4
:10501000DBB2D9B241F6C813C2F20003995410E0D2
:10502000FA79FB79C3F10B0141F20463C2F2000388
:105030000B441B79DBB2D9B241F6C813C2F20003AC
:105040009954FA7941F6C813C2F200039B5CBA681E
:105050001344BB60FB7903F10103FB7140F2B11310
:10506000C2F200031B78FA799A42C4D3BB6803F0FA
:10507000FF03BB6041F2A423C2F200034FF0010220
:105080001A70FFF7C9F961E040F25133C2F2000330
:105090001B78022B0DD140F29C13C2F200031B7847
:1050A00003F10103DAB240F29C13C2F200031A705A
:1050B00021E040F25133C2F200031B78032B0DD1E3
:1050C00040F29F13C2F200031B7803F10103DAB22E
:1050D00040F29F13C2F200031A700CE040F29E13DC
:1050E000C2F200031B7803F10103DAB240F29E130F
:1050F000C2F200031A7040F25133C2F200031B786F
:10510000012B0CD141F6C813C2F200035A7840F2C9
:105110009D13C2F200031A70FFF74AFB0FE040F242
:105120005133C2F200031B78022B06D040F25133F8
:10513000C2F200031B78042B01D1FBF78BFD40F278
:105140006E03C2F200034FF001021A7040F26E03C8
:10515000C2F200031B78002B96D042F2C830C2F294
:10516000000006F0C5FE0346012B3FF406AF07F131
:105170001007BD4680BD00BF80B584B000AF4FF0C2
:105180007F033B7107F104023B4610464FF00101DB
:105190001A464FF00203FCF7BDF87B781A463B78BD
:1051A0004FEA032313441A4640F2A013C2F200034D
:1051B0001A6040F2A013C2F200031A6840F602031C
:1051C0009A4207D140F23053C2F200034FF000027E
:1051D0001A7006E040F23053C2F200034FF00102B1
:1051E0001A704BF68033C3F20B03FB6040F660236A
:1051F000C2F200034FF000021A704FF00003BB60D0
:105200001AE0BB684FEA8302FB681344BA681A606D
:10521000BB684FEA8302FB6813441A68BB689A4272
:1052200006D040F66023C2F200034FF001021A706C
:10523000BB6803F10103BB60BA684FF6FF739A4283
:10524000DFD907F11007BD4680BD00BF90B587B01C
:1052500000AF78603960354BFB60344B3B61334BBA
:105260007B614FF00003BB600FE0BB684FEA830235
:105270007B6813441B68F868194608F005FB034671
:10528000FB60BB6803F10103BB60BA683B689A42EC
:10529000EBD3386808F0A8FB0346F868194608F015
:1052A000AFFC03463B614FF00003BB6025E0BB68E9
:1052B0004FEA83027B6813441B681846396908F07B
:1052C000E1FA03461C46BB684FEA83027B6813443D
:1052D0001B681846396908F0D5FA03462046194676
:1052E00008F0DAFB03467869194608F0CDFA034660
:1052F0007B61BB6803F10103BB60BA683B689A42FB
:10530000D5D33B6803F1FF33184608F06DFB034625
:105310007869194608F074FC0346184608F0EEFE5A
:105320000346184607F11C07BD4690BD000000006B
:10533000B0B588B000AFF860B9607A603B604FF0FC
:1053400000037B615EE04FF00003BB6152E07B69CC
:105350003A6802FB03F2BB6913444FEA83027B689D
:1053600013442C4A1A604FF00003FB613AE07B695A
:105370003A6802FB03F2BB6913444FEA83027B687D
:1053800002EB03047B693A6802FB03F2BB69134436
:105390004FEA83027B6813441D687B693A6802FB0D
:1053A00003F2FB6913444FEA8302FB6813441A6853
:1053B000FB69396801FB03F1BB690B444FEA8301C8
:1053C000BB680B441B681046194608F065FB034692
:1053D0002846194608F058FA03462360FB6903F192
:1053E0000103FB61FA693B689A42C0D3BB6903F1D0
:1053F0000103BB61BA693B689A42A8D37B6903F198
:1054000001037B617A693B689A429CD307F12007CC
:10541000BD46B0BD00000000B0B588B000AFF86078
:10542000B9607A603B604FF000033B615EE04FF093
:1054300000037B6152E07B693A6802FB03F23B693F
:1054400013444FEA83027B681344764A1A604FF094
:105450000003BB613AE07B693A6802FB03F23B69F7
:1054600013444FEA83027B6802EB03047B693A68CA
:1054700002FB03F23B6913444FEA83027B68134447
:105480001D683B693A6802FB03F2BB6913444FEAAB
:105490008302FB6813441A687B69396801FB03F1D6
:1054A000BB690B444FEA8301BB680B441B68104681
:1054B000194608F0F1FA03462846194608F0E4F9BF
:1054C00003462360BB6903F10103BB61BA693B6812
:1054D0009A42C0D37B6903F101037B617A693B6B1C
:1054E0009A42A8D33B6903F101033B613A693B68E7
:1054F0009A429CD34FF000033B618AE03B693A68D3
:1055000002FB03F34FEA83027B6813441A683B698A
:10551000396801FB03F34FEA83017B680B441B6886
:105520001046194608F0B8FA03461C463B693A682B
:1055300002FB03F303F101034FEA83027B68134488
:105540001A683B69396801FB03F303F101034FEA71
:1055500083017B680B441B681046194608F09CFACF
:1055600003462046194608F08FF903461C463B695E
:105570003A6802FB03F303F102034FEA83027B68FC
:1055800013441A683B69396801FB03F303F1020312
:105590004FEA83017B680B441B681046194608F0EC
:1055A0007BFA03462046194608F06EF90346FB6174
:1055B000F86908F0A3FD0346FB614FF000037B612F
:1055C0001FE03B693A6802FB03F27B6913444FEA30
:1055D00083027B6802EB03043B693A6802FB03F237
:1055E0007B6913444FEA83027B6813441B681846A7
:1055F000F96908F005FB034623607B6903F10103A9
:105600007B617A693B689A42DBD33B6903F1010312
:105610003B613A693B6B9A42FFF470AF07F1200798
:10562000BD46B0BD00000000B0B586B000AFF86068
:10563000B9607A603B604FF000033B613EE03B693C
:105640004FEA83027B681344204A1A604FF000033C
:105650007B612BE03B694FEA83027B6802EB03042A
:105660003B694FEA83027B6813441D683B693A68D3
:1056700002FB03F27B6913444FEA8302FB68134485
:105680001A687B694FEA8301BB680B441B681046AC
:10569000194608F001FA03462846194608F0F4F8BE
:1056A000034623607B6903F101037B617A693B68F0
:1056B0009A42CFD33B6903F101033B613A693B68EE
:1056C0009A42BCD307F11807BD46B0BD00000000E8
:1056D00090B587B000AFF860B9607A603B604FF07A
:1056E00000033B6138E04FF000037B612CE03B6935
:1056F0003A6802FB03F27B6913444FEAC3027B68FA
:1057000002EB03043B693A6802FB03F27B69134432
:105710004FEAC302FB681344D3E900013B693A68CE
:1057200002FB03F27B6913444FEAC302BB681344D4
:10573000D3E9002307F0BEFB02460B46C4E9002371
:105740007B6903F101037B617A693B689A42CED39E
:105750003B6903F101033B613A693B689A42C2D35A
:1057600007F11C07BD4690BD90B587B000AFF8604B
:10577000B9607A603B604FF000033B6136E04FF068
:1057800000037B612AE03B693A6802FB03F27B6914
:1057900013444FEA83027B6802EB03043B693A68D7
:1057A00002FB03F27B6913444FEA8302FB68134454
:1057B0001A683B69396801FB03F17B690B444FEAC6
:1057C0008301BB680B441B681046194608F05AF861
:1057D000034623607B6903F101037B617A693B68BF
:1057E0009A42D0D33B6903F101033B613A693B68BC
:1057F0009A42C4D307F11C07BD4690BD90B587B04F
:1058000000AFF860B9607A604FF000033B6130E0B0
:105810004FF000037B6124E03B697A6802FB03F2EE
:105820007B6913444FEA8302BB6802EB03043B69C4
:105830007A6802FB03F27B6913444FEA8302FB6838
:1058400013441A6841F6CC43C2F200031B681046A9
:10585000194608F021F9034623607B6903F101032F
:105860007B617A697B689A42D6D33B6903F1010375
:105870003B613A697B689A42CAD307F11C07BD466F
:1058800090BD00BF2DE9F0419AB000AF0346B9606A
:105890007A60FB734FF00003FB6523E04FF00003D9
:1058A0003B6618E0F96D386E42F27812C2F20002DF
:1058B0000B464FEA43030B4403444FEAC30303EB95
:1058C00002014FF000024FF00003C1E900233B6EDC
:1058D00003F101033B663B6E022BE3D9FB6D03F141
:1058E0000103FB65FB6D022BD8D9FB7B184607F043
:1058F0002DFC02460B464FF000004FF07E5101F5A3
:10590000E00107F0B3FD02460B461046194642F28D
:105910003023C2F20003C3E900014FF00003FB652E
:105920006EE04FF000033B6653E04FF000037B66F0
:1059300048E03E6ED7F86480FA6D13464FEA4303A1
:105940001A443B6E13444FEA8302BB6813441B683E
:10595000184607F00DFC42F23023C2F20003D3E9EF
:10596000002307F059FC02460B4614461D46FA6D0B
:1059700013464FEA43031A447B6E13444FEA8302F3
:105980007B6813441B68184607F0F2FB02460B467F
:105990002046294607F040FC02460B4610461946B1
:1059A00033464FEA4303334443444FEAC30307F10A
:1059B00068021344A3F15803C3E900017B6E03F1AD
:1059C00001037B667B6E022BB3D93B6E03F10103AF
:1059D0003B663B6E022BA8D942F27812C2F200025B
:1059E00007F1100142F27813C2F2000310461A4682
:1059F0004FF00303FFF76CFEFB6D03F10103FB6542
:105A0000FA7BFB6D9A428CD807F16807BD46BDE86A
:105A1000F08100BF80B487B000AFF860B9607A60F1
:105A20003B604FF000033B6125E04FF000037B61DA
:105A300019E07B697A6802FB03F23B6913444FEA81
:105A40008302BB6813443A69396801FB02F17A6941
:105A50000A444FEA8201FA680A4412681A607B69B4
:105A600003F101037B617A693B689A42E1D33B69A8
:105A700003F101033B613A697B689A42D5D307F190
:105A80001C07BD4680BC704780B487B000AFF8608B
:105A9000B9607A603B604FF000033B6128E04FF053
:105AA00000037B611CE07B697A6802FB03F23B69BF
:105AB00013444FEAC302BB6802EB03013B693A6837
:105AC00002FB03F27B6913444FEAC302FB681344F1
:105AD000D3E90023C1E900237B6903F101037B6162
